{"abi":[{"type":"function","name":"TLD_DNS_WIRE","inputs":[],"outputs":[{"name":"","type":"bytes","internalType":"bytes"}],"stateMutability":"view"},{"type":"function","name":"TLD_HASH","inputs":[],"outputs":[{"name":"","type":"bytes32","internalType":"bytes32"}],"stateMutability":"view"},{"type":"function","name":"TLD_LABEL","inputs":[],"outputs":[{"name":"","type":"bytes32","internalType":"bytes32"}],"stateMutability":"view"},{"type":"function","name":"__initTLDRegistration","inputs":[{"name":"_fqdn","type":"bytes","internalType":"bytes"},{"name":"_tldHash","type":"bytes32","internalType":"bytes32"}],"outputs":[],"stateMutability":"nonpayable"},{"type":"function","name":"_setApprovalForAll","inputs":[{"name":"_owner","type":"address","internalType":"address"},{"name":"_operator","type":"address","internalType":"address"},{"name":"_approved","type":"bool","internalType":"bool"}],"outputs":[],"stateMutability":"nonpayable"},{"type":"function","name":"approve","inputs":[{"name":"to","type":"address","internalType":"address"},{"name":"node","type":"uint256","internalType":"uint256"}],"outputs":[],"stateMutability":"nonpayable"},{"type":"function","name":"auth","inputs":[{"name":"_nodeId","type":"uint256","internalType":"uint256"},{"name":"_sender","type":"address","internalType":"address"}],"outputs":[{"name":"authed_","type":"bool","internalType":"bool"}],"stateMutability":"view"},{"type":"function","name":"auth","inputs":[{"name":"_nodeId","type":"bytes32","internalType":"bytes32"},{"name":"_sender","type":"address","internalType":"address"}],"outputs":[{"name":"","type":"bool","internalType":"bool"}],"stateMutability":"view"},{"type":"function","name":"balanceOf","inputs":[{"name":"_owner","type":"address","internalType":"address"}],"outputs":[{"name":"","type":"uint256","internalType":"uint256"}],"stateMutability":"view"},{"type":"function","name":"getApproved","inputs":[{"name":"_node","type":"uint256","internalType":"uint256"}],"outputs":[{"name":"","type":"address","internalType":"address"}],"stateMutability":"view"},{"type":"function","name":"getInitializedVersion","inputs":[],"outputs":[{"name":"","type":"uint8","internalType":"uint8"}],"stateMutability":"view"},{"type":"function","name":"initialize","inputs":[{"name":"_kns","type":"address","internalType":"address"},{"name":"_owner","type":"address","internalType":"address"}],"outputs":[],"stateMutability":"nonpayable"},{"type":"function","name":"isApprovedForAll","inputs":[{"name":"_owner","type":"address","internalType":"address"},{"name":"_operator","type":"address","internalType":"address"}],"outputs":[{"name":"","type":"bool","internalType":"bool"}],"stateMutability":"view"},{"type":"function","name":"isWebmaster","inputs":[{"name":"_webmaster","type":"address","internalType":"address"},{"name":"_node","type":"uint256","internalType":"uint256"}],"outputs":[{"name":"","type":"bool","internalType":"bool"}],"stateMutability":"view"},{"type":"function","name":"isWebmaster","inputs":[{"name":"_owner","type":"address","internalType":"address"},{"name":"_webmaster","type":"address","internalType":"address"}],"outputs":[{"name":"","type":"bool","internalType":"bool"}],"stateMutability":"view"},{"type":"function","name":"kns","inputs":[],"outputs":[{"name":"","type":"address","internalType":"contract IKNSRegistryResolver"}],"stateMutability":"view"},{"type":"function","name":"name","inputs":[],"outputs":[{"name":"","type":"string","internalType":"string"}],"stateMutability":"view"},{"type":"function","name":"owner","inputs":[],"outputs":[{"name":"","type":"address","internalType":"address"}],"stateMutability":"view"},{"type":"function","name":"ownerOf","inputs":[{"name":"node","type":"uint256","internalType":"uint256"}],"outputs":[{"name":"","type":"address","internalType":"address"}],"stateMutability":"view"},{"type":"function","name":"parents","inputs":[{"name":"","type":"uint256","internalType":"uint256"}],"outputs":[{"name":"","type":"uint256","internalType":"uint256"}],"stateMutability":"view"},{"type":"function","name":"proxiableUUID","inputs":[],"outputs":[{"name":"","type":"bytes32","internalType":"bytes32"}],"stateMutability":"view"},{"type":"function","name":"register","inputs":[{"name":"_name","type":"bytes","internalType":"bytes"},{"name":"_to","type":"address","internalType":"address"},{"name":"_data","type":"bytes[]","internalType":"bytes[]"}],"outputs":[{"name":"nodeId_","type":"uint256","internalType":"uint256"}],"stateMutability":"payable"},{"type":"function","name":"renounceOwnership","inputs":[],"outputs":[],"stateMutability":"nonpayable"},{"type":"function","name":"revokeControlOverSubdomain","inputs":[{"name":"_name","type":"bytes","internalType":"bytes"}],"outputs":[],"stateMutability":"nonpayable"},{"type":"function","name":"safeTransferFrom","inputs":[{"name":"from","type":"address","internalType":"address"},{"name":"to","type":"address","internalType":"address"},{"name":"node","type":"uint256","internalType":"uint256"}],"outputs":[],"stateMutability":"nonpayable"},{"type":"function","name":"safeTransferFrom","inputs":[{"name":"from","type":"address","internalType":"address"},{"name":"to","type":"address","internalType":"address"},{"name":"node","type":"uint256","internalType":"uint256"},{"name":"data","type":"bytes","internalType":"bytes"}],"outputs":[],"stateMutability":"nonpayable"},{"type":"function","name":"setApprovalForAll","inputs":[{"name":"_operator","type":"address","internalType":"address"},{"name":"_approved","type":"bool","internalType":"bool"}],"outputs":[],"stateMutability":"nonpayable"},{"type":"function","name":"setWebmaster","inputs":[{"name":"_webmaster","type":"address","internalType":"address"},{"name":"_approved","type":"bool","internalType":"bool"}],"outputs":[],"stateMutability":"nonpayable"},{"type":"function","name":"supportsInterface","inputs":[{"name":"interfaceId","type":"bytes4","internalType":"bytes4"}],"outputs":[{"name":"","type":"bool","internalType":"bool"}],"stateMutability":"view"},{"type":"function","name":"symbol","inputs":[],"outputs":[{"name":"","type":"string","internalType":"string"}],"stateMutability":"view"},{"type":"function","name":"transferFrom","inputs":[{"name":"from","type":"address","internalType":"address"},{"name":"to","type":"address","internalType":"address"},{"name":"node","type":"uint256","internalType":"uint256"}],"outputs":[],"stateMutability":"nonpayable"},{"type":"function","name":"transferOwnership","inputs":[{"name":"newOwner","type":"address","internalType":"address"}],"outputs":[],"stateMutability":"nonpayable"},{"type":"function","name":"upgradeTo","inputs":[{"name":"newImplementation","type":"address","internalType":"address"}],"outputs":[],"stateMutability":"nonpayable"},{"type":"function","name":"upgradeToAndCall","inputs":[{"name":"newImplementation","type":"address","internalType":"address"},{"name":"data","type":"bytes","internalType":"bytes"}],"outputs":[],"stateMutability":"payable"},{"type":"event","name":"AdminChanged","inputs":[{"name":"previousAdmin","type":"address","indexed":false,"internalType":"address"},{"name":"newAdmin","type":"address","indexed":false,"internalType":"address"}],"anonymous":false},{"type":"event","name":"Approval","inputs":[{"name":"owner","type":"address","indexed":true,"internalType":"address"},{"name":"approved","type":"address","indexed":true,"internalType":"address"},{"name":"tokenId","type":"uint256","indexed":true,"internalType":"uint256"}],"anonymous":false},{"type":"event","name":"ApprovalForAll","inputs":[{"name":"owner","type":"address","indexed":true,"internalType":"address"},{"name":"operator","type":"address","indexed":true,"internalType":"address"},{"name":"approved","type":"bool","indexed":false,"internalType":"bool"}],"anonymous":false},{"type":"event","name":"BeaconUpgraded","inputs":[{"name":"beacon","type":"address","indexed":true,"internalType":"address"}],"anonymous":false},{"type":"event","name":"ControlRevoked","inputs":[{"name":"child","type":"uint256","indexed":false,"internalType":"uint256"},{"name":"parent","type":"uint256","indexed":false,"internalType":"uint256"},{"name":"sender","type":"address","indexed":false,"internalType":"address"}],"anonymous":false},{"type":"event","name":"Initialized","inputs":[{"name":"version","type":"uint8","indexed":false,"internalType":"uint8"}],"anonymous":false},{"type":"event","name":"OwnershipTransferred","inputs":[{"name":"previousOwner","type":"address","indexed":true,"internalType":"address"},{"name":"newOwner","type":"address","indexed":true,"internalType":"address"}],"anonymous":false},{"type":"event","name":"Transfer","inputs":[{"name":"from","type":"address","indexed":true,"internalType":"address"},{"name":"to","type":"address","indexed":true,"internalType":"address"},{"name":"tokenId","type":"uint256","indexed":true,"internalType":"uint256"}],"anonymous":false},{"type":"event","name":"Upgraded","inputs":[{"name":"implementation","type":"address","indexed":true,"internalType":"address"}],"anonymous":false},{"type":"event","name":"Webmaster","inputs":[{"name":"owner","type":"address","indexed":true,"internalType":"address"},{"name":"webmaster","type":"address","indexed":true,"internalType":"address"},{"name":"approved","type":"bool","indexed":false,"internalType":"bool"}],"anonymous":false},{"type":"error","name":"AlreadyRegistered","inputs":[]},{"type":"error","name":"CannotRevokeControlFromTLD","inputs":[]},{"type":"error","name":"ERC721AlreadyMinted","inputs":[]},{"type":"error","name":"ERC721ApproveToOwner","inputs":[]},{"type":"error","name":"ERC721InvalidOwnerAddress0","inputs":[]},{"type":"error","name":"ERC721InvalidTokenId","inputs":[]},{"type":"error","name":"ERC721MintToAddress0","inputs":[]},{"type":"error","name":"ERC721NotOwnerOrApproved","inputs":[]},{"type":"error","name":"ERC721TransferFromIncorrectOwner","inputs":[]},{"type":"error","name":"ERC721TransferToAddress0","inputs":[]},{"type":"error","name":"ERC721TransferToNonReceiver","inputs":[]},{"type":"error","name":"KNSRegistryOnly","inputs":[]},{"type":"error","name":"NotAuthorized","inputs":[]},{"type":"error","name":"NotAuthorizedToMintName","inputs":[]},{"type":"error","name":"NotDotDevTLD","inputs":[]},{"type":"error","name":"TLDWebmasterApproveToCaller","inputs":[]}],"bytecode":{"object":"0x60a06040523060805234801561001457600080fd5b50608051612bcf61004c6000396000818161095e015281816109a701528181610bdb01528181610c1b0152610cc10152612bcf6000f3fe6080604052600436106101f95760003560e01c806370a082311161010d578063b3c65015116100a0578063d123f99a1161006f578063d123f99a146105c3578063d314c607146105d6578063d5c457141461061f578063e985e9c514610635578063f2fde38b1461065557600080fd5b8063b3c6501514610546578063b88d4fde1461056d578063c1ea25f11461058d578063d1131c72146105ad57600080fd5b80638c4e3f32116100dc5780638c4e3f32146104d35780638da5cb5b146104f357806395d89b4114610511578063a22cb4651461052657600080fd5b806370a0823114610451578063715018a614610471578063819eb62514610486578063898572a6146104a657600080fd5b80633659cfe611610190578063516a166a1161015f578063516a166a146103ae57806352d1902d146103ce57806355bf3ec7146103f15780635864c817146104115780636352211e1461043157600080fd5b80633659cfe61461033b57806342842e0e1461035b578063485cc9551461037b5780634f1ef2861461039b57600080fd5b806312403916116101cc57806312403916146102c65780631492017b146102e657806323b872dd14610306578063303bc8ac1461032657600080fd5b806301ffc9a7146101fe57806306fdde0314610234578063081812fc14610256578063095ea7b3146102a4575b600080fd5b34801561020a57600080fd5b5061021f6102193660046121c5565b50600090565b60405190151581526020015b60405180910390f35b34801561024057600080fd5b50610249610675565b60405161022b9190612232565b34801561026257600080fd5b5061028c610271366004612245565b6000908152600860205260409020546001600160a01b031690565b6040516001600160a01b03909116815260200161022b565b3480156102b057600080fd5b506102c46102bf36600461227a565b610707565b005b3480156102d257600080fd5b506102c46102e13660046122e6565b610791565b3480156102f257600080fd5b5061021f610301366004612332565b61083d565b34801561031257600080fd5b506102c461032136600461235e565b610894565b34801561033257600080fd5b506102496108c6565b34801561034757600080fd5b506102c461035636600461239a565b610954565b34801561036757600080fd5b506102c461037636600461235e565b610a3c565b34801561038757600080fd5b506102c46103963660046123b5565b610a57565b6102c46103a93660046124a4565b610bd1565b3480156103ba57600080fd5b5061021f6103c9366004612332565b610ca1565b3480156103da57600080fd5b506103e3610cb4565b60405190815260200161022b565b3480156103fd57600080fd5b5060005461028c906001600160a01b031681565b34801561041d57600080fd5b506102c461042c3660046124e8565b610d67565b34801561043d57600080fd5b5061028c61044c366004612245565b610e38565b34801561045d57600080fd5b506103e361046c36600461239a565b610e6d565b34801561047d57600080fd5b506102c4610eb2565b34801561049257600080fd5b506102c46104a136600461252d565b610ec6565b3480156104b257600080fd5b506103e36104c1366004612245565b60d46020526000908152604090205481565b3480156104df57600080fd5b506102c46104ee366004612557565b610ed1565b3480156104ff57600080fd5b50603e546001600160a01b031661028c565b34801561051d57600080fd5b50610249610f71565b34801561053257600080fd5b506102c461054136600461252d565b610f80565b34801561055257600080fd5b5061055b610f8b565b60405160ff909116815260200161022b565b34801561057957600080fd5b506102c461058836600461259a565b610f9e565b34801561059957600080fd5b5061021f6105a836600461227a565b610fd1565b3480156105b957600080fd5b506103e360015481565b6103e36105d1366004612602565b610fdd565b3480156105e257600080fd5b5061021f6105f13660046123b5565b6001600160a01b039182166000908152600a6020908152604080832093909416825291909152205460ff1690565b34801561062b57600080fd5b506103e360025481565b34801561064157600080fd5b5061021f6106503660046123b5565b611071565b34801561066157600080fd5b506102c461067036600461239a565b61109f565b606060048054610684906126b3565b80601f01602080910402602001604051908101604052809291908181526020018280546106b0906126b3565b80156106fd5780601f106106d2576101008083540402835291602001916106fd565b820191906000526020600020905b8154815290600101906020018083116106e057829003601f168201915b5050505050905090565b600061071282610e38565b9050806001600160a01b0316836001600160a01b0316036107465760405163091fbd5360e01b815260040160405180910390fd5b336001600160a01b0382161480159061076457506107648133611071565b15610782576040516307e8a24360e21b815260040160405180910390fd5b61078c8383611115565b505050565b600254156107b257604051630ea075bf60e21b815260040160405180910390fd5b6000546001600160a01b031633146107dd57604051637c26bcc360e01b815260040160405180910390fd5b600281905560036107ef83858361273d565b50610834600084848080601f01602080910402602001604051908101604052809392919081815260200183838082843760009201919091525092939250506111839050565b50600155505050565b60005b8015801561085057506002548314155b1561088e5761085f838361128a565b90508061088e5761086f836112b8565b1561088a57600092835260d460205260409092205491610840565b5060005b92915050565b61089e33826112d0565b6108bb576040516307e8a24360e21b815260040160405180910390fd5b61078c83838361132f565b600380546108d3906126b3565b80601f01602080910402602001604051908101604052809291908181526020018280546108ff906126b3565b801561094c5780601f106109215761010080835404028352916020019161094c565b820191906000526020600020905b81548152906001019060200180831161092f57829003601f168201915b505050505081565b6001600160a01b037f00000000000000000000000000000000000000000000000000000000000000001630036109a55760405162461bcd60e51b815260040161099c906127fe565b60405180910390fd5b7f00000000000000000000000000000000000000000000000000000000000000006001600160a01b03166109ee600080516020612b53833981519152546001600160a01b031690565b6001600160a01b031614610a145760405162461bcd60e51b815260040161099c9061284a565b610a1d8161146d565b60408051600080825260208201909252610a3991839190611475565b50565b61078c83838360405180602001604052806000815250610f9e565b600b54610100900460ff1615808015610a775750600b54600160ff909116105b80610a915750303b158015610a915750600b5460ff166001145b610af45760405162461bcd60e51b815260206004820152602e60248201527f496e697469616c697a61626c653a20636f6e747261637420697320616c72656160448201526d191e481a5b9a5d1a585b1a5e995960921b606482015260840161099c565b600b805460ff191660011790558015610b1757600b805461ff0019166101001790555b60408051808201825260148152732e444556204b4e532044657620446f6d61696e7360601b602091820152815180830190925260068252652227aa2222ab60d11b910152600080546001600160a01b0319166001600160a01b038516179055610b7e6115e0565b610b878261164b565b801561078c57600b805461ff0019169055604051600181527f7f26b83ff96e1f2b6a682f133852f6798a09c465da95921460cefb38474024989060200160405180910390a1505050565b6001600160a01b037f0000000000000000000000000000000000000000000000000000000000000000163003610c195760405162461bcd60e51b815260040161099c906127fe565b7f00000000000000000000000000000000000000000000000000000000000000006001600160a01b0316610c62600080516020612b53833981519152546001600160a01b031690565b6001600160a01b031614610c885760405162461bcd60e51b815260040161099c9061284a565b610c918261146d565b610c9d82826001611475565b5050565b6000610cad838361083d565b9392505050565b6000306001600160a01b037f00000000000000000000000000000000000000000000000000000000000000001614610d545760405162461bcd60e51b815260206004820152603860248201527f555550535570677261646561626c653a206d757374206e6f742062652063616c60448201527f6c6564207468726f7567682064656c656761746563616c6c0000000000000000606482015260840161099c565b50600080516020612b5383398151915290565b6000806000610d758461169d565b925092509250808203610d9b5760405163abddc77160e01b815260040160405180910390fd5b610da58233610ca1565b15610e195760006001610db7856116fd565b179050610dd38185600090815260066020526040902081905590565b506040805185815260208101859052338183015290517f7de9cdc5b55386112f86114d6e841bde7e78203bea81a912271231dffde1be769181900360600190a150610e32565b60405163ea8e4eb560e01b815260040160405180910390fd5b50505050565b600080610e4483611711565b90506001600160a01b03811661088e5760405163089ba7e160e41b815260040160405180910390fd5b60006001600160a01b038216610e9657604051633d6932c760e21b815260040160405180910390fd5b506001600160a01b031660009081526007602052604090205490565b610eba611728565b610ec4600061164b565b565b610c9d338383611782565b816001600160a01b0316836001600160a01b031603610f035760405163091fbd5360e01b815260040160405180910390fd5b6001600160a01b03838116600081815260096020908152604080832094871680845294825291829020805460ff191686151590811790915591519182527f17307eab39ab6107e8899845ad3d59bd9653f200f220920489ca2b5937696c3191015b60405180910390a3505050565b606060058054610684906126b3565b610c9d338383610ed1565b6000610f99600b5460ff1690565b905090565b610fa833836112d0565b610fc5576040516307e8a24360e21b815260040160405180910390fd5b610e3284848484611819565b6000610cad838361184d565b6000611001604051806040016040528060018152602001603160f81b815250611891565b600061101087876000336118d4565b509050611035604051806040016040528060018152602001601960f91b815250611891565b611043878787848888611a54565b9150611067604051806040016040528060018152602001603360f81b815250611891565b5095945050505050565b6001600160a01b03918216600090815260096020908152604080832093909416825291909152205460ff1690565b6110a7611728565b6001600160a01b03811661110c5760405162461bcd60e51b815260206004820152602660248201527f4f776e61626c653a206e6577206f776e657220697320746865207a65726f206160448201526564647265737360d01b606482015260840161099c565b610a398161164b565b600081815260086020526040902080546001600160a01b0319166001600160a01b038416908117909155819061114a82611711565b6001600160a01b03167f8c5be1e5ebec7d5bd14f71427d1e84f3dd0314c0f7b2291e5b200ac8c7c3b92560405160405180910390a45050565b600080835183106111d65760405162461bcd60e51b815260206004820152601e60248201527f726561644c6162656c3a20496e646578206f7574206f6620626f756e64730000604482015260640161099c565b60008484815181106111ea576111ea612896565b016020015160f81c9050604081106112445760405162461bcd60e51b815260206004820152601960248201527f726561644c6162656c3a204c6162656c20746f6f206c6f6e6700000000000000604482015260640161099c565b80156112665761125f856112598660016128c2565b83611bb5565b925061126b565b600092505b61127581856128c2565b6112809060016128c2565b9150509250929050565b60006001600160a01b0382163014806112a857506112a8828461184d565b80610cad5750610cad82846112d0565b60008181526006602052604081205461088e90611bd9565b6000806112dc83611711565b9050806001600160a01b0316846001600160a01b0316148061130357506113038185611071565b8061132757506000838152600860205260409020546001600160a01b038581169116145b949350505050565b6001600160a01b038216600003611359576040516328aad33f60e21b815260040160405180910390fd5b826001600160a01b031661136c82611711565b6001600160a01b0316146113935760405163e146af6f60e01b815260040160405180910390fd5b826001600160a01b03166113a682611711565b6001600160a01b0316146113cd5760405163e146af6f60e01b815260040160405180910390fd5b600081815260086020908152604080832080546001600160a01b03191690556001600160a01b0386811680855260078452828520805460001901905590861680855282852080546001019055858552600690935281842080546001600160601b0316606088901b6001600160601b031916179055905184937fddf252ad1be2c89b69c2b068fc378daa952ba7f163c4a11628f55a4df523b3ef91a4505050565b610a39611728565b7f4910fdfa16fed3260ed0e7147f7cc6da11a60208b5b9406d12a635614ffd91435460ff16156114a85761078c83611bee565b826001600160a01b03166352d1902d6040518163ffffffff1660e01b8152600401602060405180830381865afa925050508015611502575060408051601f3d908101601f191682019092526114ff918101906128d5565b60015b6115655760405162461bcd60e51b815260206004820152602e60248201527f45524331393637557067726164653a206e657720696d706c656d656e7461746960448201526d6f6e206973206e6f74205555505360901b606482015260840161099c565b600080516020612b5383398151915281146115d45760405162461bcd60e51b815260206004820152602960248201527f45524331393637557067726164653a20756e737570706f727465642070726f786044820152681a58589b195555525160ba1b606482015260840161099c565b5061078c838383611c8a565b600b54610100900460ff16610ec45760405162461bcd60e51b815260206004820152602b60248201527f496e697469616c697a61626c653a20636f6e7472616374206973206e6f74206960448201526a6e697469616c697a696e6760a81b606482015260840161099c565b603e80546001600160a01b038381166001600160a01b0319831681179093556040519116919082907f8be0079c531659141344cd1fd0a4f28419497f9722a3daafe3b4186f6b6457e090600090a35050565b60008060008060006116ae86611caf565b915091506000806116bf8884611cc6565b6040805160208101849052908101879052919350915060600160408051808303601f1901815291905280516020909101209891975095509350505050565b60008181526006602052604081205461088e565b60008181526006602052604081205460601c61088e565b603e546001600160a01b03163314610ec45760405162461bcd60e51b815260206004820181905260248201527f4f776e61626c653a2063616c6c6572206973206e6f7420746865206f776e6572604482015260640161099c565b816001600160a01b0316836001600160a01b0316036117b457604051637417c83160e11b815260040160405180910390fd5b6001600160a01b038381166000818152600a6020908152604080832094871680845294825291829020805460ff191686151590811790915591519182527fadc620d6f66bc2f5355112336dd7957aecdc5480a6d6e771c356503869756c449101610f64565b61182484848461132f565b61183084848484611dca565b610e3257604051633a3614b760e01b815260040160405180910390fd5b6000600a600061185c84611711565b6001600160a01b039081168252602080830193909352604091820160009081209187168152925290205460ff16905092915050565b610a39816040516024016118a59190612232565b60408051601f198184030181529190526020810180516001600160e01b031663104c13eb60e21b179052611ecc565b60008060008061191d8689898080601f01602080910402602001604051908101604052809392919081815260200183838082843760009201919091525092939250506111839050565b909250905061192d6001886128ee565b8103611965576001548214611955576040516368c8350b60e11b815260040160405180910390fd5b6002546001935093505050611a4b565b6000806119748a8a858a6118d4565b9150915060008285604051602001611996929190918252602082015260400190565b60408051601f198184030181529181528151602092830120600081815260d49093529082205490925090036119d757600081815260d4602052604090208390555b8815611a0e576119e6816112b8565b6119ef57600091505b81611a01576119fe818961128a565b91505b95509350611a4b92505050565b81611a2c57604051632b8839a960e01b815260040160405180910390fd5b6002548314611a3c576000611a3f565b60015b60019650965050505050505b94509492505050565b60008054604051633255528360e21b815282916001600160a01b03169063c9554a0c90611a87908b908b9060040161292a565b6020604051808303816000875af1158015611aa6573d6000803e3d6000fd5b505050506040513d601f19601f82011682018060405250810190611aca91906128d5565b9150819050611ad98682611eed565b611b26611b1286611af68560009081526006602052604090205490565b6001600160601b031981166001600160601b0383161792915050565b600084815260066020526040902081905590565b508215611baa5760005460405163e32954eb60e01b81526001600160a01b039091169063e32954eb90611b619084908890889060040161293e565b6000604051808303816000875af1158015611b80573d6000803e3d6000fd5b505050506040513d6000823e601f3d908101601f19168201604052611ba891908101906129e7565b505b509695505050505050565b8251600090611bc483856128c2565b1115611bcf57600080fd5b5091016020012090565b600081158061088e5750506001908116141590565b6001600160a01b0381163b611c5b5760405162461bcd60e51b815260206004820152602d60248201527f455243313936373a206e657720696d706c656d656e746174696f6e206973206e60448201526c1bdd08184818dbdb9d1c9858dd609a1b606482015260840161099c565b600080516020612b5383398151915280546001600160a01b0319166001600160a01b0392909216919091179055565b611c9383611f07565b600082511180611ca05750805b1561078c57610e328383611f47565b600080611cbd836000611183565b91509150915091565b600080600080611cd68686611183565b909250905081611d4b5760018651611cee91906128ee565b8514611d3c5760405162461bcd60e51b815260206004820152601d60248201527f6e616d65686173683a204a756e6b20617420656e64206f66206e616d65000000604482015260640161099c565b5060009250829150611dc39050565b600080611d588884611cc6565b909250905080611d8f5760408051600060208201529081018590526060016040516020818303038152906040528051906020012090505b6040805160208101849052908101859052606001604051602081830303815290604052805190602001208195509550505050505b9250929050565b60006001600160a01b0384163b15611ec157604051630a85bd0160e11b81526001600160a01b0385169063150b7a0290611e0e903390899088908890600401612ae6565b6020604051808303816000875af1925050508015611e49575060408051601f3d908101601f19168201909252611e4691810190612b19565b60015b611ea7573d808015611e77576040519150601f19603f3d011682016040523d82523d6000602084013e611e7c565b606091505b508051600003611e9f57604051633a3614b760e01b815260040160405180910390fd5b805181602001fd5b6001600160e01b031916630a85bd0160e11b149050611327565b506001949350505050565b80516a636f6e736f6c652e6c6f67602083016000808483855afa5050505050565b610c9d828260405180602001604052806000815250611f6c565b611f1081611bee565b6040516001600160a01b038216907fbc7cd75a20ee27fd9adebab32041f755214dbc6bffa90cc0225b39da2e5c2d3b90600090a250565b6060610cad8383604051806060016040528060278152602001612b7360279139611fa0565b611f768383612018565b611f836000848484611dca565b61078c57604051633a3614b760e01b815260040160405180910390fd5b6060600080856001600160a01b031685604051611fbd9190612b36565b600060405180830381855af49150503d8060008114611ff8576040519150601f19603f3d011682016040523d82523d6000602084013e611ffd565b606091505b509150915061200e86838387612111565b9695505050505050565b6001600160a01b03821661203f5760405163507508af60e11b815260040160405180910390fd5b6000818152600660205260409020541561206c576040516324a255d960e11b815260040160405180910390fd5b60008181526006602052604090205415612099576040516324a255d960e11b815260040160405180910390fd5b6001600160a01b038216600081815260076020908152604080832080546001019055848352600690915280822080546001600160601b0316606087901b6001600160601b03191617905551839291907fddf252ad1be2c89b69c2b068fc378daa952ba7f163c4a11628f55a4df523b3ef908290a45050565b60608315612180578251600003612179576001600160a01b0385163b6121795760405162461bcd60e51b815260206004820152601d60248201527f416464726573733a2063616c6c20746f206e6f6e2d636f6e7472616374000000604482015260640161099c565b5081611327565b61132783838151156121955781518083602001fd5b8060405162461bcd60e51b815260040161099c9190612232565b6001600160e01b031981168114610a3957600080fd5b6000602082840312156121d757600080fd5b8135610cad816121af565b60005b838110156121fd5781810151838201526020016121e5565b50506000910152565b6000815180845261221e8160208601602086016121e2565b601f01601f19169290920160200192915050565b602081526000610cad6020830184612206565b60006020828403121561225757600080fd5b5035919050565b80356001600160a01b038116811461227557600080fd5b919050565b6000806040838503121561228d57600080fd5b6122968361225e565b946020939093013593505050565b60008083601f8401126122b657600080fd5b50813567ffffffffffffffff8111156122ce57600080fd5b602083019150836020828501011115611dc357600080fd5b6000806000604084860312156122fb57600080fd5b833567ffffffffffffffff81111561231257600080fd5b61231e868287016122a4565b909790965060209590950135949350505050565b6000806040838503121561234557600080fd5b823591506123556020840161225e565b90509250929050565b60008060006060848603121561237357600080fd5b61237c8461225e565b925061238a6020850161225e565b9150604084013590509250925092565b6000602082840312156123ac57600080fd5b610cad8261225e565b600080604083850312156123c857600080fd5b6123d18361225e565b91506123556020840161225e565b634e487b7160e01b600052604160045260246000fd5b604051601f8201601f1916810167ffffffffffffffff8111828210171561241e5761241e6123df565b604052919050565b600067ffffffffffffffff821115612440576124406123df565b50601f01601f191660200190565b600082601f83011261245f57600080fd5b813561247261246d82612426565b6123f5565b81815284602083860101111561248757600080fd5b816020850160208301376000918101602001919091529392505050565b600080604083850312156124b757600080fd5b6124c08361225e565b9150602083013567ffffffffffffffff8111156124dc57600080fd5b6112808582860161244e565b6000602082840312156124fa57600080fd5b813567ffffffffffffffff81111561251157600080fd5b6113278482850161244e565b8035801515811461227557600080fd5b6000806040838503121561254057600080fd5b6125498361225e565b91506123556020840161251d565b60008060006060848603121561256c57600080fd5b6125758461225e565b92506125836020850161225e565b91506125916040850161251d565b90509250925092565b600080600080608085870312156125b057600080fd5b6125b98561225e565b93506125c76020860161225e565b925060408501359150606085013567ffffffffffffffff8111156125ea57600080fd5b6125f68782880161244e565b91505092959194509250565b60008060008060006060868803121561261a57600080fd5b853567ffffffffffffffff8082111561263257600080fd5b61263e89838a016122a4565b90975095508591506126526020890161225e565b9450604088013591508082111561266857600080fd5b818801915088601f83011261267c57600080fd5b81358181111561268b57600080fd5b8960208260051b85010111156126a057600080fd5b9699959850939650602001949392505050565b600181811c908216806126c757607f821691505b6020821081036126e757634e487b7160e01b600052602260045260246000fd5b50919050565b601f82111561078c576000816000526020600020601f850160051c810160208610156127165750805b601f850160051c820191505b8181101561273557828155600101612722565b505050505050565b67ffffffffffffffff831115612755576127556123df565b6127698361276383546126b3565b836126ed565b6000601f84116001811461279d57600085156127855750838201355b600019600387901b1c1916600186901b1783556127f7565b600083815260209020601f19861690835b828110156127ce57868501358255602094850194600190920191016127ae565b50868210156127eb5760001960f88860031b161c19848701351681555b505060018560011b0183555b5050505050565b6020808252602c908201527f46756e6374696f6e206d7573742062652063616c6c6564207468726f7567682060408201526b19195b1959d85d1958d85b1b60a21b606082015260800190565b6020808252602c908201527f46756e6374696f6e206d7573742062652063616c6c6564207468726f7567682060408201526b6163746976652070726f787960a01b606082015260800190565b634e487b7160e01b600052603260045260246000fd5b634e487b7160e01b600052601160045260246000fd5b8082018082111561088e5761088e6128ac565b6000602082840312156128e757600080fd5b5051919050565b8181038181111561088e5761088e6128ac565b81835281816020850137506000828201602090810191909152601f909101601f19169091010190565b602081526000611327602083018486612901565b6000604082018583526020604060208501528185835260608501905060608660051b86010192508660005b878110156129d957868503605f190183528135368a9003601e1901811261298f57600080fd5b8901848101903567ffffffffffffffff8111156129ab57600080fd5b8036038213156129ba57600080fd5b6129c5878284612901565b965050509183019190830190600101612969565b509298975050505050505050565b600060208083850312156129fa57600080fd5b825167ffffffffffffffff80821115612a1257600080fd5b818501915085601f830112612a2657600080fd5b815181811115612a3857612a386123df565b8060051b612a478582016123f5565b9182528381018501918581019089841115612a6157600080fd5b86860192505b83831015612ad957825185811115612a7f5760008081fd5b8601603f81018b13612a915760008081fd5b878101516040612aa361246d83612426565b8281528d82848601011115612ab85760008081fd5b612ac7838c83018487016121e2565b85525050509186019190860190612a67565b9998505050505050505050565b6001600160a01b038581168252841660208201526040810183905260806060820181905260009061200e90830184612206565b600060208284031215612b2b57600080fd5b8151610cad816121af565b60008251612b488184602087016121e2565b919091019291505056fe360894a13ba1a3210667c828492db98dca3e2076cc3735a920a3ca505d382bbc416464726573733a206c6f772d6c6576656c2064656c65676174652063616c6c206661696c6564a2646970667358221220fde7834e52e73157f61252b3679a1dba098b506f177e734294aafdf5d8eb965964736f6c63430008170033","linkReferences":{}},"methodIdentifiers":{"TLD_DNS_WIRE()":"303bc8ac","TLD_HASH()":"d5c45714","TLD_LABEL()":"d1131c72","__initTLDRegistration(bytes,bytes32)":"12403916","_setApprovalForAll(address,address,bool)":"8c4e3f32","approve(address,uint256)":"095ea7b3","auth(bytes32,address)":"516a166a","auth(uint256,address)":"1492017b","balanceOf(address)":"70a08231","getApproved(uint256)":"081812fc","getInitializedVersion()":"b3c65015","initialize(address,address)":"485cc955","isApprovedForAll(address,address)":"e985e9c5","isWebmaster(address,address)":"d314c607","isWebmaster(address,uint256)":"c1ea25f1","kns()":"55bf3ec7","name()":"06fdde03","owner()":"8da5cb5b","ownerOf(uint256)":"6352211e","parents(uint256)":"898572a6","proxiableUUID()":"52d1902d","register(bytes,address,bytes[])":"d123f99a","renounceOwnership()":"715018a6","revokeControlOverSubdomain(bytes)":"5864c817","safeTransferFrom(address,address,uint256)":"42842e0e","safeTransferFrom(address,address,uint256,bytes)":"b88d4fde","setApprovalForAll(address,bool)":"a22cb465","setWebmaster(address,bool)":"819eb625","supportsInterface(bytes4)":"01ffc9a7","symbol()":"95d89b41","transferFrom(address,address,uint256)":"23b872dd","transferOwnership(address)":"f2fde38b","upgradeTo(address)":"3659cfe6","upgradeToAndCall(address,bytes)":"4f1ef286"},"id":49}