{"abi":[{"type":"function","name":"TLDs","inputs":[{"name":"","type":"bytes32","internalType":"bytes32"}],"outputs":[{"name":"","type":"address","internalType":"address"}],"stateMutability":"view"},{"type":"function","name":"clearRecords","inputs":[{"name":"_node","type":"bytes32","internalType":"bytes32"},{"name":"_records","type":"uint96","internalType":"uint96"}],"outputs":[],"stateMutability":"nonpayable"},{"type":"function","name":"getInitializedVersion","inputs":[],"outputs":[{"name":"","type":"uint8","internalType":"uint8"}],"stateMutability":"view"},{"type":"function","name":"initialize","inputs":[{"name":"_owner","type":"address","internalType":"address"}],"outputs":[],"stateMutability":"nonpayable"},{"type":"function","name":"ip","inputs":[{"name":"","type":"bytes32","internalType":"bytes32"}],"outputs":[{"name":"ip","type":"uint128","internalType":"uint128"},{"name":"ws","type":"uint16","internalType":"uint16"},{"name":"wt","type":"uint16","internalType":"uint16"},{"name":"tcp","type":"uint16","internalType":"uint16"},{"name":"udp","type":"uint16","internalType":"uint16"}],"stateMutability":"view"},{"type":"function","name":"key","inputs":[{"name":"","type":"bytes32","internalType":"bytes32"}],"outputs":[{"name":"","type":"bytes32","internalType":"bytes32"}],"stateMutability":"view"},{"type":"function","name":"multicall","inputs":[{"name":"data","type":"bytes[]","internalType":"bytes[]"}],"outputs":[{"name":"results","type":"bytes[]","internalType":"bytes[]"}],"stateMutability":"nonpayable"},{"type":"function","name":"multicallWithNodeCheck","inputs":[{"name":"node","type":"bytes32","internalType":"bytes32"},{"name":"data","type":"bytes[]","internalType":"bytes[]"}],"outputs":[{"name":"results","type":"bytes[]","internalType":"bytes[]"}],"stateMutability":"nonpayable"},{"type":"function","name":"nodes","inputs":[{"name":"","type":"bytes32","internalType":"bytes32"}],"outputs":[{"name":"tld","type":"address","internalType":"contract ITLDRegistrar"},{"name":"records","type":"uint96","internalType":"uint96"}],"stateMutability":"view"},{"type":"function","name":"owner","inputs":[],"outputs":[{"name":"","type":"address","internalType":"address"}],"stateMutability":"view"},{"type":"function","name":"proxiableUUID","inputs":[],"outputs":[{"name":"","type":"bytes32","internalType":"bytes32"}],"stateMutability":"view"},{"type":"function","name":"registerNode","inputs":[{"name":"fqdn","type":"bytes","internalType":"bytes"}],"outputs":[{"name":"nodeHash","type":"bytes32","internalType":"bytes32"}],"stateMutability":"nonpayable"},{"type":"function","name":"registerTLD","inputs":[{"name":"fqdn","type":"bytes","internalType":"bytes"},{"name":"registrar","type":"address","internalType":"address"}],"outputs":[],"stateMutability":"nonpayable"},{"type":"function","name":"renounceOwnership","inputs":[],"outputs":[],"stateMutability":"nonpayable"},{"type":"function","name":"routers","inputs":[{"name":"_node","type":"bytes32","internalType":"bytes32"}],"outputs":[{"name":"","type":"bytes32[]","internalType":"bytes32[]"}],"stateMutability":"view"},{"type":"function","name":"setAllIp","inputs":[{"name":"_node","type":"bytes32","internalType":"bytes32"},{"name":"_ip","type":"uint128","internalType":"uint128"},{"name":"_ws","type":"uint16","internalType":"uint16"},{"name":"_wt","type":"uint16","internalType":"uint16"},{"name":"_tcp","type":"uint16","internalType":"uint16"},{"name":"_udp","type":"uint16","internalType":"uint16"}],"outputs":[],"stateMutability":"nonpayable"},{"type":"function","name":"setDirectInfo","inputs":[{"name":"_node","type":"bytes32","internalType":"bytes32"},{"name":"_ip","type":"uint128","internalType":"uint128"},{"name":"_ws","type":"uint16","internalType":"uint16"},{"name":"_wt","type":"uint16","internalType":"uint16"},{"name":"_tcp","type":"uint16","internalType":"uint16"},{"name":"_udp","type":"uint16","internalType":"uint16"}],"outputs":[],"stateMutability":"nonpayable"},{"type":"function","name":"setIp","inputs":[{"name":"_node","type":"bytes32","internalType":"bytes32"},{"name":"_ip","type":"uint128","internalType":"uint128"}],"outputs":[],"stateMutability":"nonpayable"},{"type":"function","name":"setKey","inputs":[{"name":"_node","type":"bytes32","internalType":"bytes32"},{"name":"_key","type":"bytes32","internalType":"bytes32"}],"outputs":[],"stateMutability":"nonpayable"},{"type":"function","name":"setRouters","inputs":[{"name":"_node","type":"bytes32","internalType":"bytes32"},{"name":"_newRouters","type":"bytes32[]","internalType":"bytes32[]"}],"outputs":[],"stateMutability":"nonpayable"},{"type":"function","name":"setTcp","inputs":[{"name":"_node","type":"bytes32","internalType":"bytes32"},{"name":"_tcp","type":"uint16","internalType":"uint16"}],"outputs":[],"stateMutability":"nonpayable"},{"type":"function","name":"setUdp","inputs":[{"name":"_node","type":"bytes32","internalType":"bytes32"},{"name":"_udp","type":"uint16","internalType":"uint16"}],"outputs":[],"stateMutability":"nonpayable"},{"type":"function","name":"setWs","inputs":[{"name":"_node","type":"bytes32","internalType":"bytes32"},{"name":"_ws","type":"uint16","internalType":"uint16"}],"outputs":[],"stateMutability":"nonpayable"},{"type":"function","name":"setWt","inputs":[{"name":"_node","type":"bytes32","internalType":"bytes32"},{"name":"_wt","type":"uint16","internalType":"uint16"}],"outputs":[],"stateMutability":"nonpayable"},{"type":"function","name":"supportsInterface","inputs":[{"name":"interfaceID","type":"bytes4","internalType":"bytes4"}],"outputs":[{"name":"","type":"bool","internalType":"bool"}],"stateMutability":"view"},{"type":"function","name":"transferOwnership","inputs":[{"name":"newOwner","type":"address","internalType":"address"}],"outputs":[],"stateMutability":"nonpayable"},{"type":"function","name":"upgradeTo","inputs":[{"name":"newImplementation","type":"address","internalType":"address"}],"outputs":[],"stateMutability":"nonpayable"},{"type":"function","name":"upgradeToAndCall","inputs":[{"name":"newImplementation","type":"address","internalType":"address"},{"name":"data","type":"bytes","internalType":"bytes"}],"outputs":[],"stateMutability":"payable"},{"type":"event","name":"AdminChanged","inputs":[{"name":"previousAdmin","type":"address","indexed":false,"internalType":"address"},{"name":"newAdmin","type":"address","indexed":false,"internalType":"address"}],"anonymous":false},{"type":"event","name":"BeaconUpgraded","inputs":[{"name":"beacon","type":"address","indexed":true,"internalType":"address"}],"anonymous":false},{"type":"event","name":"Initialized","inputs":[{"name":"version","type":"uint8","indexed":false,"internalType":"uint8"}],"anonymous":false},{"type":"event","name":"IpUpdate","inputs":[{"name":"node","type":"bytes32","indexed":true,"internalType":"bytes32"},{"name":"ip","type":"uint128","indexed":false,"internalType":"uint128"}],"anonymous":false},{"type":"event","name":"KeyUpdate","inputs":[{"name":"node","type":"bytes32","indexed":true,"internalType":"bytes32"},{"name":"key","type":"bytes32","indexed":false,"internalType":"bytes32"}],"anonymous":false},{"type":"event","name":"NewTLD","inputs":[{"name":"node","type":"bytes32","indexed":true,"internalType":"bytes32"},{"name":"name","type":"bytes","indexed":false,"internalType":"bytes"},{"name":"tld","type":"address","indexed":false,"internalType":"address"}],"anonymous":false},{"type":"event","name":"NodeRegistered","inputs":[{"name":"node","type":"bytes32","indexed":true,"internalType":"bytes32"},{"name":"name","type":"bytes","indexed":false,"internalType":"bytes"}],"anonymous":false},{"type":"event","name":"OwnershipTransferred","inputs":[{"name":"previousOwner","type":"address","indexed":true,"internalType":"address"},{"name":"newOwner","type":"address","indexed":true,"internalType":"address"}],"anonymous":false},{"type":"event","name":"RecordsCleared","inputs":[{"name":"node","type":"bytes32","indexed":true,"internalType":"bytes32"}],"anonymous":false},{"type":"event","name":"RoutingUpdate","inputs":[{"name":"node","type":"bytes32","indexed":true,"internalType":"bytes32"},{"name":"routers","type":"bytes32[]","indexed":false,"internalType":"bytes32[]"}],"anonymous":false},{"type":"event","name":"TcpUpdate","inputs":[{"name":"node","type":"bytes32","indexed":true,"internalType":"bytes32"},{"name":"port","type":"uint16","indexed":false,"internalType":"uint16"}],"anonymous":false},{"type":"event","name":"UdpUpdate","inputs":[{"name":"node","type":"bytes32","indexed":true,"internalType":"bytes32"},{"name":"port","type":"uint16","indexed":false,"internalType":"uint16"}],"anonymous":false},{"type":"event","name":"Upgraded","inputs":[{"name":"implementation","type":"address","indexed":true,"internalType":"address"}],"anonymous":false},{"type":"event","name":"WsUpdate","inputs":[{"name":"node","type":"bytes32","indexed":true,"internalType":"bytes32"},{"name":"port","type":"uint16","indexed":false,"internalType":"uint16"}],"anonymous":false},{"type":"event","name":"WtUpdate","inputs":[{"name":"node","type":"bytes32","indexed":true,"internalType":"bytes32"},{"name":"port","type":"uint16","indexed":false,"internalType":"uint16"}],"anonymous":false},{"type":"error","name":"NotTLD","inputs":[]},{"type":"error","name":"TLD401","inputs":[]},{"type":"error","name":"TLDRegistrarOnly","inputs":[]}],"bytecode":{"object":"0x60a06040523060805234801561001457600080fd5b50608051612e1061004c60003960008181610ea901528181610ef2015281816111f30152818161123301526112c60152612e106000f3fe6080604052600436106101b75760003560e01c806374191440116100ec578063c9554a0c1161008a578063decd6bd511610064578063decd6bd5146105d4578063e32954eb146105f4578063f2fde38b14610614578063fbda8c3f1461063457600080fd5b8063c9554a0c14610525578063cf506b4a14610545578063d86e697d1461056557600080fd5b8063ac9650d8116100c6578063ac9650d814610496578063b3c65015146104c3578063c4d66de8146104e5578063c7988b371461050557600080fd5b8063741914401461042b5780638da5cb5b1461044b578063aa1fce691461046957600080fd5b80633940afcd116101595780634f1ef286116101335780634f1ef2861461039257806352d1902d146103a557806365184956146103c8578063715018a61461041657600080fd5b80633940afcd1461032f5780634a2a6add1461034f5780634f0575491461036f57600080fd5b80632363b1a6116101955780632363b1a6146102af578063300777af146102cf57806332946692146102ef5780633659cfe61461030f57600080fd5b806301ffc9a7146101bc57806305f93b5f146101f157806307a003301461028d575b600080fd5b3480156101c857600080fd5b506101dc6101d73660046125ae565b610661565b60405190151581526020015b60405180910390f35b3480156101fd57600080fd5b5061025261020c3660046125d8565b60ff602052600090815260409020546001600160801b0381169061ffff600160801b8204811691600160901b8104821691600160a01b8204811691600160b01b90041685565b604080516001600160801b03909616865261ffff9485166020870152928416928501929092528216606084015216608082015260a0016101e8565b34801561029957600080fd5b506102ad6102a83660046125f1565b610698565b005b3480156102bb57600080fd5b506102ad6102ca36600461262a565b6107f5565b3480156102db57600080fd5b506102ad6102ea36600461266d565b610963565b3480156102fb57600080fd5b506102ad61030a366004612690565b610add565b34801561031b57600080fd5b506102ad61032a366004612714565b610e9f565b34801561033b57600080fd5b506102ad61034a366004612774565b610f87565b34801561035b57600080fd5b506102ad61036a3660046127c0565b6110ed565b34801561037b57600080fd5b506102ad61038a366004612690565b505050505050565b6102ad6103a0366004612812565b6111e9565b3480156103b157600080fd5b506103ba6112b9565b6040519081526020016101e8565b3480156103d457600080fd5b506103fe6103e33660046125d8565b60fb602052600090815260409020546001600160a01b031681565b6040516001600160a01b0390911681526020016101e8565b34801561042257600080fd5b506102ad61136c565b34801561043757600080fd5b506102ad61044636600461262a565b611380565b34801561045757600080fd5b5060c9546001600160a01b03166103fe565b34801561047557600080fd5b506104896104843660046125d8565b6114f3565b6040516101e891906128d4565b3480156104a257600080fd5b506104b66104b1366004612918565b611555565b6040516101e891906129aa565b3480156104cf57600080fd5b5060005460405160ff90911681526020016101e8565b3480156104f157600080fd5b506102ad610500366004612714565b61156a565b34801561051157600080fd5b506102ad61052036600461262a565b611684565b34801561053157600080fd5b506103ba610540366004612a50565b6117f9565b34801561055157600080fd5b506102ad610560366004612a86565b6118ff565b34801561057157600080fd5b506105ad6105803660046125d8565b60fc602052600090815260409020546001600160a01b03811690600160a01b90046001600160601b031682565b604080516001600160a01b0390931683526001600160601b039091166020830152016101e8565b3480156105e057600080fd5b506102ad6105ef36600461262a565b611a7e565b34801561060057600080fd5b506104b661060f366004612774565b611bec565b34801561062057600080fd5b506102ad61062f366004612714565b611c01565b34801561064057600080fd5b506103ba61064f3660046125d8565b60fd6020526000908152604090205481565b60006001600160e01b03198216637c05e4fb60e11b148061069257506301ffc9a760e01b6001600160e01b03198316145b92915050565b600082815260fc6020526040908190205490516328b50b3560e11b81526004810184905233602482015283916001600160a01b03169063516a166a90604401602060405180830381865afa1580156106f4573d6000803e3d6000fd5b505050506040513d601f19601f820116820180604052508101906107189190612ada565b61073557604051634745a29b60e01b815260040160405180910390fd5b600083815260fd60205260409020829055811561078757600083815260fc6020526040902080546001600160a01b0381166001600160a01b928390046001600160601b031617918202179091556107b5565b600083815260fc6020526040902080546001600160a01b0381166001600160a01b9283900416918202179091555b50827f8ad9db565fe90ae9d4d50c51a4bf38505bfc2013675dbfd3510e0d6a4d050ba5836040516107e891815260200190565b60405180910390a2505050565b600082815260fc6020526040908190205490516328b50b3560e11b81526004810184905233602482015283916001600160a01b03169063516a166a90604401602060405180830381865afa158015610851573d6000803e3d6000fd5b505050506040513d601f19601f820116820180604052508101906108759190612ada565b61089257604051634745a29b60e01b815260040160405180910390fd5b600083815260ff60205260409020805461ffff60801b1916600160801b61ffff851690810291909117909155156108fe57600083815260fc6020526040902080546001600160a01b0381166008600160a01b928390046001600160601b0316179182021790915561092c565b600083815260fc6020526040902080546001600160a01b0381166008600160a01b9283900416918202179091555b5060405161ffff8316815283907f11424874391782446f3957eb6ca27caa9af2d78d87980762c13090bd2845f71f906020016107e8565b600082815260fc6020526040908190205490516328b50b3560e11b81526004810184905233602482015283916001600160a01b03169063516a166a90604401602060405180830381865afa1580156109bf573d6000803e3d6000fd5b505050506040513d601f19601f820116820180604052508101906109e39190612ada565b610a0057604051634745a29b60e01b815260040160405180910390fd5b600083815260ff6020526040902080546fffffffffffffffffffffffffffffffff19166001600160801b03841690811790915515610a7357600083815260fc6020526040902080546001600160a01b0381166004600160a01b928390046001600160601b03161791820217909155610aa1565b600083815260fc6020526040902080546001600160a01b0381166004600160a01b9283900416918202179091555b506040516001600160801b038316815283907f27831fc2ef572cce1298d5d9fc3cc1304eb5dfcea21d2190e5ad5943e4fa14fc906020016107e8565b600086815260fc6020526040908190205490516328b50b3560e11b81526004810188905233602482015287916001600160a01b03169063516a166a90604401602060405180830381865afa158015610b39573d6000803e3d6000fd5b505050506040513d601f19601f82011682018060405250810190610b5d9190612ada565b610b7a57604051634745a29b60e01b815260040160405180910390fd5b600087815260fc6020526040902054600160a01b90046001600160601b03166001600160801b03871615610bb15760048117610bb6565b600481165b905061ffff861615610bcb5760088117610bd0565b600881165b905061ffff851615610be55760108117610bea565b601081165b905061ffff841615610bff5760208117610c04565b602081165b905061ffff831615610c195760408117610c1e565b604081165b90508060fc60008a815260200190815260200160002060000160146101000a8154816001600160601b0302191690836001600160601b031602179055506040518060a00160405280886001600160801b031681526020018761ffff1681526020018661ffff1681526020018561ffff1681526020018461ffff1681525060ff60008a815260200190815260200160002060008201518160000160006101000a8154816001600160801b0302191690836001600160801b0316021790555060208201518160000160106101000a81548161ffff021916908361ffff16021790555060408201518160000160126101000a81548161ffff021916908361ffff16021790555060608201518160000160146101000a81548161ffff021916908361ffff16021790555060808201518160000160166101000a81548161ffff021916908361ffff160217905550905050877f27831fc2ef572cce1298d5d9fc3cc1304eb5dfcea21d2190e5ad5943e4fa14fc88604051610da991906001600160801b0391909116815260200190565b60405180910390a260405161ffff8716815288907f11424874391782446f3957eb6ca27caa9af2d78d87980762c13090bd2845f71f9060200160405180910390a260405161ffff8616815288907f4554b2837a782a075cb46bd0c681b73ef5e49cbcbeb3323e6f1fd9d3ec93a4c39060200160405180910390a260405161ffff8516815288907fc9b39ee25167b4c4f1ba319c61772350b508db76f73d0b25575173210386d9f39060200160405180910390a260405161ffff8416815288907f3d36ae2226b041dc65d74c772bae84c40b4ac6d1da927d7b633940d819c09c1a9060200160405180910390a25050505050505050565b6001600160a01b037f0000000000000000000000000000000000000000000000000000000000000000163003610ef05760405162461bcd60e51b8152600401610ee790612afc565b60405180910390fd5b7f00000000000000000000000000000000000000000000000000000000000000006001600160a01b0316610f39600080516020612d94833981519152546001600160a01b031690565b6001600160a01b031614610f5f5760405162461bcd60e51b8152600401610ee790612b48565b610f6881611c77565b60408051600080825260208201909252610f8491839190611c7f565b50565b600083815260fc6020526040908190205490516328b50b3560e11b81526004810185905233602482015284916001600160a01b03169063516a166a90604401602060405180830381865afa158015610fe3573d6000803e3d6000fd5b505050506040513d601f19601f820116820180604052508101906110079190612ada565b61102457604051634745a29b60e01b815260040160405180910390fd5b600084815260fe6020526040902061103d90848461254e565b541561107e57600084815260fc6020526040902080546001600160a01b0381166002600160a01b928390046001600160601b031617918202179091556110ac565b600084815260fc6020526040902080546001600160a01b0381166002600160a01b9283900416918202179091555b50837fd5a074e1c505de1aae7c94787f2e46faf07aceba6fc0c6a5f82f223ca1de2c5784846040516110df929190612b94565b60405180910390a250505050565b600082815260fc6020526040908190205490516328b50b3560e11b81526004810184905233602482015283916001600160a01b03169063516a166a90604401602060405180830381865afa158015611149573d6000803e3d6000fd5b505050506040513d601f19601f8201168201806040525081019061116d9190612ada565b61118a57604051634745a29b60e01b815260040160405180910390fd5b600083815260fc60205260408082208054600160a01b8082048719166001600160601b0316026001600160a01b039091161790555184917f43a5deaf1b43fdbf7f75cf9745d253c5d17328910ab7c757e664869316fe973391a2505050565b6001600160a01b037f00000000000000000000000000000000000000000000000000000000000000001630036112315760405162461bcd60e51b8152600401610ee790612afc565b7f00000000000000000000000000000000000000000000000000000000000000006001600160a01b031661127a600080516020612d94833981519152546001600160a01b031690565b6001600160a01b0316146112a05760405162461bcd60e51b8152600401610ee790612b48565b6112a982611c77565b6112b582826001611c7f565b5050565b6000306001600160a01b037f000000000000000000000000000000000000000000000000000000000000000016146113595760405162461bcd60e51b815260206004820152603860248201527f555550535570677261646561626c653a206d757374206e6f742062652063616c60448201527f6c6564207468726f7567682064656c656761746563616c6c00000000000000006064820152608401610ee7565b50600080516020612d9483398151915290565b611374611def565b61137e6000611e49565b565b600082815260fc6020526040908190205490516328b50b3560e11b81526004810184905233602482015283916001600160a01b03169063516a166a90604401602060405180830381865afa1580156113dc573d6000803e3d6000fd5b505050506040513d601f19601f820116820180604052508101906114009190612ada565b61141d57604051634745a29b60e01b815260040160405180910390fd5b600083815260ff60205260409020805461ffff60b01b1916600160b01b61ffff8516908102919091179091551561148d57600083815260fc60205260409081902080546001600160601b03600160a01b808304919091169093179283026001600160a01b039091161790556114bc565b600083815260fc6020526040908190208054600160a01b8082049093169283026001600160a01b039091161790555b5060405161ffff8316815283907f3d36ae2226b041dc65d74c772bae84c40b4ac6d1da927d7b633940d819c09c1a906020016107e8565b600081815260fe602090815260409182902080548351818402810184019094528084526060939283018282801561154957602002820191906000526020600020905b815481526020019060010190808311611535575b50505050509050919050565b606061156360008484611e9b565b9392505050565b600054610100900460ff161580801561158a5750600054600160ff909116105b806115a45750303b1580156115a4575060005460ff166001145b6116075760405162461bcd60e51b815260206004820152602e60248201527f496e697469616c697a61626c653a20636f6e747261637420697320616c72656160448201526d191e481a5b9a5d1a585b1a5e995960921b6064820152608401610ee7565b6000805460ff19166001179055801561162a576000805461ff0019166101001790555b611632612060565b61163b82611e49565b80156112b5576000805461ff0019169055604051600181527f7f26b83ff96e1f2b6a682f133852f6798a09c465da95921460cefb38474024989060200160405180910390a15050565b600082815260fc6020526040908190205490516328b50b3560e11b81526004810184905233602482015283916001600160a01b03169063516a166a90604401602060405180830381865afa1580156116e0573d6000803e3d6000fd5b505050506040513d601f19601f820116820180604052508101906117049190612ada565b61172157604051634745a29b60e01b815260040160405180910390fd5b600083815260ff60205260409020805461ffff60a01b1916600160a01b61ffff8516908102919091179091551561179257600083815260fc6020908152604090912080546001600160601b03600160a01b808304919091169093179283026001600160a01b039091161790556117c2565b600083815260fc602090815260409091208054600160a01b8082049093169283026001600160a01b039091161790555b5060405161ffff8316815283907fc9b39ee25167b4c4f1ba319c61772350b508db76f73d0b25575173210386d9f3906020016107e8565b600080600061183d85858080601f0160208091040260200160405190810160405280939291908181526020018383808284376000920191909152506120cb92505050565b600081815260fb602052604090205491935091506001600160a01b031633146118795760405163ae7fd2eb60e01b815260040160405180910390fd5b6040805180820182523381526000602080830182815286835260fc90915290839020915190516001600160601b0316600160a01b026001600160a01b03919091161790555182907f76a77f5ff7e4ca0adac1c931a7ad2ea83bfb7e6b8603e81917dd2dca7e90625c906118ef9088908890612bf6565b60405180910390a2509392505050565b611907611def565b60008061194e600086868080601f01602080910402602001604051908101604052809392919081815260200183838082843760009201919091525092939250506120e29050565b909250905061195e600185612c20565b811461197d5760405163b444c4ed60e01b815260040160405180910390fd5b60408051600060208083018290528284018690528351808403850181526060840180865281519183019190912080845260fb835285842080546001600160a01b038b166001600160a01b0319918216811790925560fc90945295909320805490921685179091556309201c8b60e11b90529190631240391690611a0890899089908690606401612c33565b600060405180830381600087803b158015611a2257600080fd5b505af1158015611a36573d6000803e3d6000fd5b50505050807f7db14709557f4e6eec0d0c5f0c1855b31e9667a13ef65c90c284987c677d4004878787604051611a6e93929190612c57565b60405180910390a2505050505050565b600082815260fc6020526040908190205490516328b50b3560e11b81526004810184905233602482015283916001600160a01b03169063516a166a90604401602060405180830381865afa158015611ada573d6000803e3d6000fd5b505050506040513d601f19601f82011682018060405250810190611afe9190612ada565b611b1b57604051634745a29b60e01b815260040160405180910390fd5b600083815260ff60205260409020805461ffff60901b1916600160901b61ffff85169081029190911790915515611b8757600083815260fc6020526040902080546001600160a01b0381166010600160a01b928390046001600160601b03161791820217909155611bb5565b600083815260fc6020526040902080546001600160a01b0381166010600160a01b9283900416918202179091555b5060405161ffff8316815283907f4554b2837a782a075cb46bd0c681b73ef5e49cbcbeb3323e6f1fd9d3ec93a4c3906020016107e8565b6060611bf9848484611e9b565b949350505050565b611c09611def565b6001600160a01b038116611c6e5760405162461bcd60e51b815260206004820152602660248201527f4f776e61626c653a206e6577206f776e657220697320746865207a65726f206160448201526564647265737360d01b6064820152608401610ee7565b610f8481611e49565b610f84611def565b7f4910fdfa16fed3260ed0e7147f7cc6da11a60208b5b9406d12a635614ffd91435460ff1615611cb757611cb2836121e9565b505050565b826001600160a01b03166352d1902d6040518163ffffffff1660e01b8152600401602060405180830381865afa925050508015611d11575060408051601f3d908101601f19168201909252611d0e91810190612c83565b60015b611d745760405162461bcd60e51b815260206004820152602e60248201527f45524331393637557067726164653a206e657720696d706c656d656e7461746960448201526d6f6e206973206e6f74205555505360901b6064820152608401610ee7565b600080516020612d948339815191528114611de35760405162461bcd60e51b815260206004820152602960248201527f45524331393637557067726164653a20756e737570706f727465642070726f786044820152681a58589b195555525160ba1b6064820152608401610ee7565b50611cb2838383612285565b60c9546001600160a01b0316331461137e5760405162461bcd60e51b815260206004820181905260248201527f4f776e61626c653a2063616c6c6572206973206e6f7420746865206f776e65726044820152606401610ee7565b60c980546001600160a01b038381166001600160a01b0319831681179093556040519116919082907f8be0079c531659141344cd1fd0a4f28419497f9722a3daafe3b4186f6b6457e090600090a35050565b60608167ffffffffffffffff811115611eb657611eb66127fc565b604051908082528060200260200182016040528015611ee957816020015b6060815260200190600190039081611ed45790505b50905060005b82811015612058578415611fab576000848483818110611f1157611f11612c9c565b9050602002810190611f239190612cb2565b611f3291602491600491612cf9565b611f3b91612d23565b9050858114611fa95760405162461bcd60e51b815260206004820152603460248201527f6d756c746963616c6c3a20416c6c207265636f726473206d7573742068617665604482015273040c240dac2e8c6d0d2dcce40dcc2dacad0c2e6d60631b6064820152608401610ee7565b505b60008030868685818110611fc157611fc1612c9c565b9050602002810190611fd39190612cb2565b604051611fe1929190612d41565b600060405180830381855af49150503d806000811461201c576040519150601f19603f3d011682016040523d82523d6000602084013e612021565b606091505b50915091508161203057600080fd5b8084848151811061204357612043612c9c565b60209081029190910101525050600101611eef565b509392505050565b600054610100900460ff1661137e5760405162461bcd60e51b815260206004820152602b60248201527f496e697469616c697a61626c653a20636f6e7472616374206973206e6f74206960448201526a6e697469616c697a696e6760a81b6064820152608401610ee7565b6000806120d98360006122b0565b91509150915091565b600080835183106121355760405162461bcd60e51b815260206004820152601e60248201527f726561644c6162656c3a20496e646578206f7574206f6620626f756e647300006044820152606401610ee7565b600084848151811061214957612149612c9c565b016020015160f81c9050604081106121a35760405162461bcd60e51b815260206004820152601960248201527f726561644c6162656c3a204c6162656c20746f6f206c6f6e67000000000000006044820152606401610ee7565b80156121c5576121be856121b8866001612d51565b836123b4565b92506121ca565b600092505b6121d48185612d51565b6121df906001612d51565b9150509250929050565b6001600160a01b0381163b6122565760405162461bcd60e51b815260206004820152602d60248201527f455243313936373a206e657720696d706c656d656e746174696f6e206973206e60448201526c1bdd08184818dbdb9d1c9858dd609a1b6064820152608401610ee7565b600080516020612d9483398151915280546001600160a01b0319166001600160a01b0392909216919091179055565b61228e836123d8565b60008251118061229b5750805b15611cb2576122aa8383612418565b50505050565b6000806000806122c086866120e2565b90925090508161233557600186516122d89190612c20565b85146123265760405162461bcd60e51b815260206004820152601d60248201527f6e616d65686173683a204a756e6b20617420656e64206f66206e616d650000006044820152606401610ee7565b50600092508291506123ad9050565b60008061234288846122b0565b9092509050806123795760408051600060208201529081018590526060016040516020818303038152906040528051906020012090505b6040805160208101849052908101859052606001604051602081830303815290604052805190602001208195509550505050505b9250929050565b82516000906123c38385612d51565b11156123ce57600080fd5b5091016020012090565b6123e1816121e9565b6040516001600160a01b038216907fbc7cd75a20ee27fd9adebab32041f755214dbc6bffa90cc0225b39da2e5c2d3b90600090a250565b60606115638383604051806060016040528060278152602001612db4602791396060600080856001600160a01b0316856040516124559190612d64565b600060405180830381855af49150503d8060008114612490576040519150601f19603f3d011682016040523d82523d6000602084013e612495565b606091505b50915091506124a6868383876124b0565b9695505050505050565b6060831561251f578251600003612518576001600160a01b0385163b6125185760405162461bcd60e51b815260206004820152601d60248201527f416464726573733a2063616c6c20746f206e6f6e2d636f6e74726163740000006044820152606401610ee7565b5081611bf9565b611bf983838151156125345781518083602001fd5b8060405162461bcd60e51b8152600401610ee79190612d80565b828054828255906000526020600020908101928215612589579160200282015b8281111561258957823582559160200191906001019061256e565b50612595929150612599565b5090565b5b80821115612595576000815560010161259a565b6000602082840312156125c057600080fd5b81356001600160e01b03198116811461156357600080fd5b6000602082840312156125ea57600080fd5b5035919050565b6000806040838503121561260457600080fd5b50508035926020909101359150565b803561ffff8116811461262557600080fd5b919050565b6000806040838503121561263d57600080fd5b8235915061264d60208401612613565b90509250929050565b80356001600160801b038116811461262557600080fd5b6000806040838503121561268057600080fd5b8235915061264d60208401612656565b60008060008060008060c087890312156126a957600080fd5b863595506126b960208801612656565b94506126c760408801612613565b93506126d560608801612613565b92506126e360808801612613565b91506126f160a08801612613565b90509295509295509295565b80356001600160a01b038116811461262557600080fd5b60006020828403121561272657600080fd5b611563826126fd565b60008083601f84011261274157600080fd5b50813567ffffffffffffffff81111561275957600080fd5b6020830191508360208260051b85010111156123ad57600080fd5b60008060006040848603121561278957600080fd5b83359250602084013567ffffffffffffffff8111156127a757600080fd5b6127b38682870161272f565b9497909650939450505050565b600080604083850312156127d357600080fd5b8235915060208301356001600160601b03811681146127f157600080fd5b809150509250929050565b634e487b7160e01b600052604160045260246000fd5b6000806040838503121561282557600080fd5b61282e836126fd565b9150602083013567ffffffffffffffff8082111561284b57600080fd5b818501915085601f83011261285f57600080fd5b813581811115612871576128716127fc565b604051601f8201601f19908116603f01168101908382118183101715612899576128996127fc565b816040528281528860208487010111156128b257600080fd5b8260208601602083013760006020848301015280955050505050509250929050565b6020808252825182820181905260009190848201906040850190845b8181101561290c578351835292840192918401916001016128f0565b50909695505050505050565b6000806020838503121561292b57600080fd5b823567ffffffffffffffff81111561294257600080fd5b61294e8582860161272f565b90969095509350505050565b60005b8381101561297557818101518382015260200161295d565b50506000910152565b6000815180845261299681602086016020860161295a565b601f01601f19169290920160200192915050565b600060208083016020845280855180835260408601915060408160051b87010192506020870160005b82811015612a0157603f198886030184526129ef85835161297e565b945092850192908501906001016129d3565b5092979650505050505050565b60008083601f840112612a2057600080fd5b50813567ffffffffffffffff811115612a3857600080fd5b6020830191508360208285010111156123ad57600080fd5b60008060208385031215612a6357600080fd5b823567ffffffffffffffff811115612a7a57600080fd5b61294e85828601612a0e565b600080600060408486031215612a9b57600080fd5b833567ffffffffffffffff811115612ab257600080fd5b612abe86828701612a0e565b9094509250612ad19050602085016126fd565b90509250925092565b600060208284031215612aec57600080fd5b8151801515811461156357600080fd5b6020808252602c908201527f46756e6374696f6e206d7573742062652063616c6c6564207468726f7567682060408201526b19195b1959d85d1958d85b1b60a21b606082015260800190565b6020808252602c908201527f46756e6374696f6e206d7573742062652063616c6c6564207468726f7567682060408201526b6163746976652070726f787960a01b606082015260800190565b6020808252810182905260006001600160fb1b03831115612bb457600080fd5b8260051b80856040850137919091016040019392505050565b81835281816020850137506000828201602090810191909152601f909101601f19169091010190565b602081526000611bf9602083018486612bcd565b634e487b7160e01b600052601160045260246000fd5b8181038181111561069257610692612c0a565b604081526000612c47604083018587612bcd565b9050826020830152949350505050565b604081526000612c6b604083018587612bcd565b905060018060a01b0383166020830152949350505050565b600060208284031215612c9557600080fd5b5051919050565b634e487b7160e01b600052603260045260246000fd5b6000808335601e19843603018112612cc957600080fd5b83018035915067ffffffffffffffff821115612ce457600080fd5b6020019150368190038213156123ad57600080fd5b60008085851115612d0957600080fd5b83861115612d1657600080fd5b5050820193919092039150565b8035602083101561069257600019602084900360031b1b1692915050565b8183823760009101908152919050565b8082018082111561069257610692612c0a565b60008251612d7681846020870161295a565b9190910192915050565b602081526000611563602083018461297e56fe360894a13ba1a3210667c828492db98dca3e2076cc3735a920a3ca505d382bbc416464726573733a206c6f772d6c6576656c2064656c65676174652063616c6c206661696c6564a2646970667358221220f97e4a00a4da0ccef9252d66622af43a1b0f2a010cb3a3eaaa4852b3834f5b3964736f6c63430008170033","linkReferences":{}},"methodIdentifiers":{"TLDs(bytes32)":"65184956","clearRecords(bytes32,uint96)":"4a2a6add","getInitializedVersion()":"b3c65015","initialize(address)":"c4d66de8","ip(bytes32)":"05f93b5f","key(bytes32)":"fbda8c3f","multicall(bytes[])":"ac9650d8","multicallWithNodeCheck(bytes32,bytes[])":"e32954eb","nodes(bytes32)":"d86e697d","owner()":"8da5cb5b","proxiableUUID()":"52d1902d","registerNode(bytes)":"c9554a0c","registerTLD(bytes,address)":"cf506b4a","renounceOwnership()":"715018a6","routers(bytes32)":"aa1fce69","setAllIp(bytes32,uint128,uint16,uint16,uint16,uint16)":"32946692","setDirectInfo(bytes32,uint128,uint16,uint16,uint16,uint16)":"4f057549","setIp(bytes32,uint128)":"300777af","setKey(bytes32,bytes32)":"07a00330","setRouters(bytes32,bytes32[])":"3940afcd","setTcp(bytes32,uint16)":"c7988b37","setUdp(bytes32,uint16)":"74191440","setWs(bytes32,uint16)":"2363b1a6","setWt(bytes32,uint16)":"decd6bd5","supportsInterface(bytes4)":"01ffc9a7","transferOwnership(address)":"f2fde38b","upgradeTo(address)":"3659cfe6","upgradeToAndCall(address,bytes)":"4f1ef286"},"id":69}